:100000000C947A000C94A2000C94A2000C94A20010
:100010000C943B050C9483050C94A2000C94A20054
:100020000C94A2000C94A2000C94A2000C94A200C8
:100030000C94A2000C94A2000C94A2000C94A200B8
:100040000C948A030C94A2000C94DE010C945A0ABE
:100050000C94A2000C94A2000C94A2000C94A20098
:100060000C94D4030C94A200C50692061907DE0670
:10007000E507AE06B608B6089706B608B608B6088D
:100080001A08B608B6082907B60807087A07CA0783
:100090008E06B608090704070000000023002600AA
:1000A000290000000000240027002A0000000000B2
:1000B000250028002B0004040404040404040202A4
:1000C00002020202030303030303010204081020D7
:1000D00040800102040810200102040810200000E2
:1000E00000080002010000030407000000000000F7
:1000F0000000C50A11241FBECFEFD8E0DEBFCDBF80
:1001000011E0A0E0B1E0ECEAF2E202C005900D924D
:10011000A635B107D9F723E0A6E5B1E001C01D92ED
:10012000AB3AB207E1F710E0CAE7D0E004C021978C
:10013000FE010E942011C937D107C9F70E94270B81
:100140000C9454110C940000FC01538D448D252F08
:1001500030E0842F90E0821B930B541710F0CF9661
:10016000089501970895FC01918D828D981761F093
:10017000828DDF01A80FB11D5D968C91928D9F5FDE
:100180009F73928F90E008958FEF9FEF0895FC0189
:10019000918D828D981731F0828DE80FF11D858D3C
:1001A00090E008958FEF9FEF0895FC01918D228DCF
:1001B000892F90E0805C9F4F821B91098F73992754
:1001C000089508950C94F408833081F028F4813068
:1001D00099F08230A1F008958730A9F08830B9F005
:1001E0008430D1F4809180008F7D03C080918000A5
:1001F0008F7780938000089584B58F7702C084B58F
:100200008F7D84BD08958091B0008F7703C0809169
:10021000B0008F7D8093B000089585ED8093BC0081
:100220008091BC0084FDFCCF1092CA020895E09139
:100230006001F0916101309729F01092CC02109288
:10024000EE0209940895AC01E091AE01F091AF0186
:100250003097E1F09091A3028091A2029817B0F03C
:1002600090E0292F30E02617370754F4DA01A20F67
:10027000B31F8C91D901A055BE4F8C939F5FF1CFD6
:100280001092A3026093A202CB01099408950895ED
:10029000E091A3028091A202E81730F4F0E0E0556B
:1002A000FE4F808190E008958FEF9FEF0895909129
:1002B000A3028091A202981750F4E92FF0E0E055D4
:1002C000FE4F208130E09F5F9093A30202C02FEF8A
:1002D0003FEFC90108958091A20290E02091A3020E
:1002E000821B91090895CF92DF92EF92FF920F93B4
:1002F0001F93CF93DF937C018A018091CB028823E7
:1003000089F0EB016B01C40ED51ECC15DD05F1F0B3
:100310006991D701ED91FC910190F081E02DC70129
:100320000995F3CF842F413288F49091CA0294301A
:1003300069F440938201FB0122E631E0D9019A2F52
:10034000921B981718F491919D93F9CFC801DF91F2
:10035000CF911F910F91FF90EF90DF90CF90089574
:100360002091CB022223C9F02091EE02203240F0EE
:1003700021E030E0FC013383228380E090E00895A7
:100380008091CC02E82FF0E0E353FD4F60838F5F54
:100390008093CC028093EE0209C08091CA0284301F
:1003A00029F481E0809382016093620181E090E012
:1003B0000895089580E090E0089508951F920F92A7
:1003C0000FB60F9211242F938F939F93EF93FF9368
:1003D000E091FF02F09100038081E0910503F0912C
:1003E000060382FD12C09081809108038F5F8F7396
:1003F00020910903821751F0E0910803F0E0E151E8
:10040000FD4F958F8093080301C08081FF91EF918C
:100410009F918F912F910F900FBE0F901F90189565
:10042000FC01848DDF01A80FB11DA35ABF4F2C9191
:10043000848D90E001968F739927848FA689B78960
:100440002C93A089B1898C9180648C93938D848D39
:10045000981306C00288F389E02D80818F7D808308
:100460000895EF92FF920F931F93CF93DF93EC01C8
:1004700081E0888F9B8D8C8D981305C0E889F98960
:10048000808185FD24C0F62E0B8D10E00F5F1F4F7D
:100490000F731127E02E8C8DE8120CC00FB607FCED
:1004A000FACFE889F989808185FFF5CFCE010E94D6
:1004B0001002F1CF8B8DFE01E80FF11DE35AFF4FC3
:1004C000F0820B8FEA89FB898081806207C0EE8908
:1004D000FF896083E889F98980818064808381E075
:1004E00090E0DF91CF911F910F91FF90EF900895D1
:1004F000CF93DF93EC01888D8823C9F0EA89FB89CB
:10050000808185FD05C0A889B9898C9186FD0FC0C1
:100510000FB607FCF5CF808185FFF2CFA889B98996
:100520008C9185FFEDCFCE010E941002E7CFDF91C5
:10053000CF9108951F93CF93DF93282F30E0F901D7
:10054000E252FF4F8491F901E653FF4FD491F90134
:10055000EA54FF4FC491CC23C9F0162F81110E9499
:10056000E400EC2FF0E0EE0FFF1FE455FF4FA591E4
:10057000B4918FB7F894111105C09C91ED2FE095BF
:10058000E92302C0EC91ED2BEC938FBFDF91CF916B
:100590001F910895CF93DF9390E0FC01E653FF4F46
:1005A0002491FC01EA54FF4F8491882361F190E08B
:1005B000880F991FFC01EE55FF4FC591D491FC01A6
:1005C000E455FF4FA591B491611109C09FB7F8940C
:1005D0008881209582238883EC912E230BC0623082
:1005E00061F49FB7F8943881822F809583238883A4
:1005F000EC912E2B2C939FBF06C08FB7F894E88107
:100600002E2B28838FBFDF91CF9108951F93CF9317
:10061000DF93182FEB0161E00E94CA02209711F4CA
:1006200060E004C0CF3FD10539F461E0812FDF9154
:10063000CF911F910C949A02E12FF0E0E252FF4F0C
:10064000E491E330F9F048F4E130B9F0E230A1F59B
:1006500084B5806284BDC8BD34C0E730E9F0E830BD
:1006600019F1E43049F58091800080628093800028
:10067000D0938B00C0938A0024C084B5806884BD69
:10068000C7BD1FC080918000806880938000D09398
:100690008900C093880015C08091B0008068809365
:1006A000B000C093B3000DC08091B0008062809311
:1006B000B000C093B40005C0C038D1050CF0B5CF70
:1006C000AFCFDF91CF911F9108953FB7F8948091FC
:1006D000A6019091A701A091A801B091A90126B50A
:1006E000A89B05C02F3F19F00196A11DB11D3FBF6A
:1006F000BA2FA92F982F8827820F911DA11DB11DF8
:10070000BC01CD0142E0660F771F881F991F4A95F3
:10071000D1F708951F920F920FB60F9211242F93C5
:100720003F938F939F93AF93BF93809118029091C3
:100730001902A0911A02B0911B023091A50123E089
:10074000230F2D3720F40196A11DB11D05C026E809
:10075000230F0296A11DB11D2093A50180931802BD
:1007600090931902A0931A02B0931B028091A601E4
:100770009091A701A091A801B091A9010196A11D96
:10078000B11D8093A6019093A701A093A801B093F7
:10079000A901BF91AF919F918F913F912F910F90A0
:1007A0000FBE0F901F9018951F920F920FB60F92C9
:1007B00011242F933F934F935F936F937F938F9366
:1007C0009F93AF93BF93EF93FF938091B900887F7E
:1007D000803609F49CC068F5883209F45BC090F457
:1007E000803109F454C038F4882309F4F1C088300A
:1007F00009F44DC0F1C0883109F44CC0803209F4CD
:100800005DC0EAC0803409F468C048F4803309F45C
:1008100055C0883309F0E0C08093C802D3C080354A
:1008200009F44FC0883509F45DC0883409F0D4C09C
:10083000D1C0883909F4C2C0A8F4883709F467C068
:1008400038F4883609F463C0803709F460C0C4C046
:10085000883809F4B3C0803909F45FC0803809F0E2
:10086000BBC05BC0803B09F481C038F4803A09F416
:1008700066C0883A09F47AC0AFC0803C09F4A2C0CF
:10088000883C09F49FC0883B09F485C0A5C08091CD
:10089000A50210C09091C7028091C602981770F50A
:1008A000E091C70281E08E0F8093C702F0E0EA5525
:1008B000FD4F80818093BB0085EC81C08093C8028E
:1008C00089C0E091C70281E08E0F8093C7028091BA
:1008D000BB00F0E0EA55FD4F80839091C702809104
:1008E000C60269C0E091C70281E08E0F8093C70203
:1008F0008091BB00F0E0EA55FD4F80838091C902F2
:10090000811168C081E08093A40284EA5CC083E026
:100910008093CA021092A401CFCF8091A4018032AB
:1009200008F04CC0E091A40181E08E0F8093A401F7
:100930008091BB00F0E0EC57FE4F8083BDCF8091EB
:10094000A401803230F4E091A401F0E0EC57FE4FB6
:1009500010826091A40170E0E091AA01F091AB01D6
:1009600084E891E009951092A4012CC084E0809362
:10097000CA021092830110928201E091AC01F091C1
:10098000AD01099580918201811105C081E08093BC
:10099000820110926201E091830181E08E0F8093C9
:1009A0008301F0E0EE59FE4F80818093BB0090916F
:1009B000830180918201981708F47ECF85E88093A7
:1009C000BC000AC085EC8093BC001092CA0204C02F
:1009D0001092C8020E940D01FF91EF91BF91AF915B
:1009E0009F918F917F916F915F914F913F912F9147
:1009F0000F900FBE0F901F9018950F931F93CF93DA
:100A0000DF93EB0197FF05C091958195910921E056
:100A100001C020E08C018F3F910519F014F00FEF19
:100A200010E0222311F060E001C061E08CE00E9440
:100A30009A02B8018AE00E940603D7FF05C0D1954B
:100A4000C195D10981E001C080E0CF3FD10519F007
:100A500014F0CFEFD0E0811102C060E001C061E08E
:100A600087E00E949A02BE0186E0DF91CF911F913C
:100A70000F910C9406031F920F920FB60F92112440
:100A80004F935F936F937F938F939F93AF93BF9396
:100A9000EF93FF93E0915F018E2F880F880F809373
:100AA0005F01E6B1E370E82BE0935F018091E8011C
:100AB0009091E901A091EA01B091EB01EF70F0E0B3
:100AC000E85FFE4F4081042E000C550B660B770B40
:100AD000841B950BA60BB70B8093E8019093E9015B
:100AE000A093EA01B093EB01FF91EF91BF91AF9119
:100AF0009F918F917F916F915F914F910F900FBE5A
:100B00000F901F9018951F920F920FB60F921124FD
:100B10000F931F932F933F934F935F936F937F9305
:100B20008F939F93AF93BF93EF93FF9320915E01B9
:100B3000220F220F20935E0189B1807390E034E090
:100B4000959587953A95E1F7822B80935E014091C8
:100B5000EC015091ED016091EE017091EF018F7009
:100B6000E82FF0E0E85FFE4F8081082E000C990B23
:100B7000AA0BBB0B8A019B01081B190B2A0B3B0B11
:100B80000093EC011093ED012093EE013093EF01FF
:100B9000FF91EF91BF91AF919F918F917F916F9155
:100BA0005F914F913F912F911F910F910F900FBE29
:100BB0000F901F90189510921D0280E4EEE5F2E070
:100BC000DF01982F1D929A95E9F7EEE1F2E0DF013F
:100BD0001D928A95E9F710925A0110925B011092CA
:100BE0005C0110925D011092560110925701109213
:100BF0005801109259011092A1021092A002109275
:100C00009F0210929E020895E4E0F2E010821182A9
:100C1000128213828091EC019091ED01A091EE017E
:100C2000B091EF01B095A095909581959F4FAF4FF2
:100C3000BF4F84839583A683B78380879187A287DC
:100C4000B387108A118A128A138A1586148617862A
:100C50001686E0EFF1E010821182128213828091F9
:100C6000E8019091E901A091EA01B091EB01848340
:100C70009583A683B78380879187A287B387108ADD
:100C8000118A128A138A1586148617861686089585
:100C9000CF92DF92EF92FF920F931F93CF93DF9348
:100CA000CDB7DEB762970FB6F894DEBF0FBECDBFEB
:100CB0008EE592E09A8B898B0E94610F8C01092E40
:100CC000000CAA0BBB0B80935A0190935B01A0937D
:100CD0005C01B0935D018EE192E00E94610F7C01A6
:100CE000092E000CAA0BBB0B809356019093570161
:100CF000A0935801B0935901E0911D024E2FEE0FC1
:100D0000550B660B770BFA01E156F109E831F10555
:100D100008F02CC2EC5CFF4F0C9420118E010F5F89
:100D20001F4FDFC160E072EC81E090E06DC1609127
:100D3000100270911102072E000C880B990B0E9473
:100D4000BC098CE391E00E949C096091FC017091C8
:100D5000FD01072E000C880B990B56C160911402FF
:100D60007091150280911602909117020E94BC09A1
:100D70008CE391E00E949C09609100027091010255
:100D800080910202909103023FC1802F0E3010F03B
:100D900082EF800F8770806480937C0080917A005E
:100DA000806480937A0080917A0086FDFCCF8091E8
:100DB00078002091790090E0922B23C01127F80150
:100DC000E252FF4F8491F801E653FF4FF490F8018F
:100DD000EA54FF4F0491002391F081110E94E40036
:100DE000E02FF0E0EE0FFF1FE856FF4FA591B49102
:100DF000EC91EF2181E090E021F480E002C080E0FE
:100E000090E00E94430AB6C1B701802F0E940603FA
:100E1000AAC10097A105B10511F460E006C00197D1
:100E2000A105B10509F09FC161E0802F0E949A02DF
:100E30009AC10097A105B10511F460E006C00197C1
:100E4000A105B10509F08FC161E0802F0E94CA029F
:100E50008AC161E0802F0E94CA0260E0802F0E9458
:100E60009A0283E090E00197F1F761E0802F0E9401
:100E70009A028FE090E00197F1F760E0802F0E94E6
:100E80009A0260E0802F0E94CA021127F801E653FF
:100E9000FF4F6491F801EA54FF4FE491F0E0EE0F48
:100EA000FF1FE856FF4F8591949100E117E220E083
:100EB00030E0462F0E94800A611571058105910579
:100EC00049F0DC01CB010196A11DB11DBC01CD0192
:100ED0009F7003C060E070E0CB012AE330E040E0A7
:100EE00050E00E940111CA01B9010E9453100E94F2
:100EF0001B108AC02AE931E0D7010E94261124EB99
:100F000030E040E050E00E940111690186E6C80E21
:100F1000D11C8091A90391E09093CB028093ED02C4
:100F20001092CC021092EE02B8017727660F771F5D
:100F3000660F771F6A5F7F4F8CE893E00E94B001D5
:100F400080E090E00E94550A80E090E00E94550AFF
:100F5000C6010E94550A8D2D90E00E94550A0E94FC
:100F60000009000F111FF801E053FE4FF182E082EB
:100F700084E08093BA0087E191E09093AD01809383
:100F8000AC0183E291E09093AB018093AA010E94AF
:100F90007109E9C0000F111FF801E053FE4F808175
:100FA00091810E94430A84E08093BA0087E191E036
:100FB0009093AD018093AC0183E291E09093AB01FB
:100FC0008093AA010E947109D5C08091EC01909193
:100FD000ED01A091EE01B091EF019C01AD016627FA
:100FE0007727CB01621B730B840B950B0E94BC0906
:100FF0008CE391E00E949C096091E8017091E90105
:101000008091EA019091EB010E94350AB3C01092E1
:10101000EC011092ED011092EE011092EF0110928E
:10102000E8011092E9011092EA011092EB010E948E
:10103000040699C02FB7F894809118029091190274
:10104000A0911A02B0911B022FBF809300019093D0
:101050000101A0930201B0930301C0905A01D09006
:101060005B01E0905C01F0905D01C114D104E104EA
:10107000F104A9F48091560190915701A091580173
:10108000B0915901892B8A2B8B2B49F460E070E0D9
:1010900080E090E00E94FD0410921C0203C081E0F9
:1010A00080931C02C701B6010E9453106093040292
:1010B0007093050280930602909307026091560197
:1010C0007091570180915801909159010E945310DD
:1010D0006093F0017093F1018093F2019093F3011A
:1010E00042C0AE014F5E5F4F61E471E089899A8929
:1010F0000E947F0F009739F00E94610FF8018193E1
:1011000091938F01EECF89819A819093A803809368
:10111000A7038B819C819093A6038093A5038D8167
:101120009E819093A4038093A3038F8198859093CD
:10113000A2038093A10389859A859093A00380934D
:101140009F038B859C8590939E0380939D038D8543
:101150009E8590939C0380939B038F8598899093A1
:101160009A03809399038EE391E002C083E491E0B7
:101170000E94AE0962960FB6F894DEBF0FBECDBFD7
:10118000DF91CF911F910F91FF90EF90DF90CF9063
:101190000895CF92DF92EF92FF920F931F93CF9318
:1011A000DF936C017A018B01C0E0D0E0CE15DF0542
:1011B00089F0D8016D918D01D601ED91FC910190DE
:1011C000F081E02DC6010995892B11F47E0102C042
:1011D0002196ECCFC701DF91CF911F910F91FF9026
:1011E000EF90DF90CF9008958FEE92E00E94D500AF
:1011F00021E0892B09F420E0822F08950E944F11ED
:101200002091EE029091ED02213208F044C08091CD
:10121000CA028111FCCF32E03093CA0231E0309330
:10122000C9023FEF3093C8021092C7022093C60252
:10123000ADECB2E046EA52E0FA013E2F341B321721
:1012400018F43D913193F9CF1092A5022091A50297
:10125000990F922B9093A5029091A402913031F4B2
:101260001092A4029091A5029093BB0095EE9093EA
:10127000BC009091CA029230E1F39091C8029F3F66
:1012800079F08091C802803241F08091C8028033A9
:1012900031F084E005C081E003C082E001C083E05A
:1012A0001092CC021092EE021092CB020895CF93CE
:1012B000C62F9091A90321E02093CB029093ED02D9
:1012C0001092CC021092EE02682F8CE893E00E94FC
:1012D000B0016C2F8CE893E00E94B001CF910C9488
:1012E00000091092A3021092A2021092CC02109256
:1012F000EE02EEE7F0E080818F7C80831092CA02DC
:1013000081E08093C9021092A40261E082E10E9410
:101310009A0261E083E10E949A02E9EBF0E08081A9
:101320008E7F808380818D7F808388E48093B80066
:1013300085E48093BC000895009769F0FC0101905A
:101340000020E9F73197AF01481B590BBC018FEE24
:1013500092E00C94C90880E090E00895CF93DF9369
:101360000E949C09EC0183E591E00E949C098C0F8E
:101370009D1FDF91CF9108958F929F92AF92BF9260
:10138000CF92DF92EF92FF920F931F93CF93DF9351
:10139000CDB7DEB7A1970FB6F894DEBF0FBECDBFB5
:1013A0006B017C0197FF31C0E091EF02F091F002F8
:1013B0000190F081E02D6DE28FEE92E009958C01B5
:1013C00022273327A9012C193D094E095F0919A2CB
:1013D000CE0181967C019AE0892E912CA12CB12C12
:1013E000CA01B901A50194010E94DF10605DF701F7
:1013F00062937F01211531054105510589F7CF0120
:101400000E949C09800F911F1DC09B01AC0119A275
:101410008E010F5D1F4F8AE0C82ED12CE12CF12CDC
:10142000CA01B901A70196010E94DF10605DF801B1
:1014300062938F01211531054105510589F7CF01CF
:101440000E949C09A1960FB6F894DEBF0FBECDBFD7
:10145000DF91CF911F910F91FF90EF90DF90CF9090
:10146000BF90AF909F908F900895CF93DF930E948D
:10147000BC09EC0183E591E00E949C098C0F9D1F43
:10148000DF91CF910895CF93DF93BC01990F880B23
:10149000990B0E94BC09EC0183E591E00E949C0934
:1014A0008C0F9D1FDF91CF910895682F8CE893E0FA
:1014B0000C94B0011F920F920FB60F9211242F932C
:1014C0003F934F935F936F937F938F939F93AF93CC
:1014D000BF93EF93FF938FEE92E00E941002FF9173
:1014E000EF91BF91AF919F918F917F916F915F919C
:1014F0004F913F912F910F900FBE0F901F90189515
:10150000CF92DF92EF92FF920F931F93E82FF92F64
:1015100005C0015011092109310961F1908196231B
:101520009417B9F305C0015011092109310911F1CE
:10153000908196239413F7CFC12CD12CE12CF12C60
:101540000AC08FEFC81AD80AE80AF80A0C151D0558
:101550002E053F0579F080818623841791F36C2D49
:101560007D2D8E2D9F2D1F910F91FF90EF90DF907D
:10157000CF90089560E070E080E090E01F910F91BF
:10158000FF90EF90DF90CF900895EFEEF2E013829E
:10159000128288EE93E0A0E0B0E084839583A68376
:1015A000B7832CE131E03183208325EC30E03587AF
:1015B000248724EC30E03787268720EC30E0318B1D
:1015C000208B21EC30E0338B228B22EC30E0358B0A
:1015D000248B26EC30E0378B268B118E128E138EE7
:1015E000148EECE8F3E01382128284839583A68341
:1015F000B7838EE291E09183808380E48093A90396
:101600004AE050E05093A8034093A7032CE030E059
:101610003093A6032093A5031092A4031092A30372
:1016200082E390E09093A2038093A1035093A003E0
:1016300040939F0330939E0320939D0310929C033D
:1016400010929B0390939A03809399030895CF93EC
:10165000DF93CDB7DEB762970FB6F894DEBF0FBE4B
:10166000CDBF789484B5826084BD84B5816084BD2B
:1016700085B5826085BD85B5816085BD80916E0030
:10168000816080936E001092810080918100826061
:10169000809381008091810081608093810080919E
:1016A00080008160809380008091B100846080938D
:1016B000B1008091B00081608093B00080917A0089
:1016C000846080937A0080917A00826080937A00AF
:1016D00080917A00816080937A0080917A0080689E
:1016E00080937A001092C100E091FF02F091000314
:1016F00082E08083E091FB02F091FC021082E09195
:10170000FD02F091FE0280E1808310920703E091D8
:101710000303F091040386E08083E0910103F091DC
:101720000203808180618083E0910103F0910203D4
:10173000808188608083E0910103F09102038081C1
:1017400080688083E0910103F091020380818F7DA6
:10175000808384E08093BA0087E191E09093AD01AB
:101760008093AC0183E291E09093AB018093AA0156
:101770000E9471098DED91E09093AF018093AE01CD
:1017800054985598389839985C9A5D9A409A419A3D
:1017900080916D00806380936D0080916C00836008
:1017A00080936C008091680086608093680061E09F
:1017B0008CE00E94CA0261E08AE00E94CA0261E0F5
:1017C00087E00E94CA0261E086E00E94CA020E948D
:1017D0000406E0EDF1E08AE590E08193919321E049
:1017E000E83EF207D1F70E94710960E080E00E94B4
:1017F00057098091A90391E09093CB028093ED0269
:101800001092CC021092EE0260E08CE893E00E940D
:10181000B0010E9400098091A9039091CA02911120
:10182000FCCF91E09093CA029093C9022FEF2093CE
:10183000C8021092C7021092C6029093A50290911E
:10184000A502880F892B8093A5028091A402813084
:1018500031F41092A4028091A5028093BB0085EE22
:101860008093BC008091CA028130E1F38091C7026D
:10187000811103C08091C70201C081E0A6EAB2E0F5
:1018800020EB31E0F9019E2F921B981718F49D91DF
:101890009193F9CF1092A3028093A2028CE893E077
:1018A0000E945701182F682F6F76606180E00E94B8
:1018B000570967E88EEF0E945709612F80E00E9468
:1018C00057090E9465034B015C0125E0C22ED12C13
:1018D000E12CF12C0E946503DC01CB0188199909E8
:1018E000AA09BB09883E9340A105B10558F031E033
:1018F000C31AD108E108F10848EE840E43E0941EB3
:10190000A11CB11CC114D104E104F10419F7612F29
:10191000616A80E00E9457098091A20290E02091C4
:10192000A302821B9109181619060CF084C08CE8DA
:1019300093E00E9457018093AA032091A002309166
:10194000A1028432C9F42130310539F4E0919E02BC
:10195000F0919F02E25AFD4F09C02230310539F45F
:10196000E0919E02F0919F02E25EFD4F10820E9484
:1019700048060E94DB05D0CF8032F9F421153105ED
:1019800039F461E070E07093A1026093A002C4CFCB
:101990002130310509F6E0919E02F0919F02E25A52
:1019A000FD4F108282E090E09093A1028093A0020C
:1019B00010929F0210929E02AFCF2115310519F4AB
:1019C00080931D02A9CF2130310541F420919E0260
:1019D00030919F02F901E25AFD4F0BC022303105D0
:1019E00009F09ACF20919E0230919F02F901E25EA8
:1019F000FD4F80832F5F3F4F30939F0220939E02C5
:101A00008BCF8FEE92E00E94B3008093AA032091C7
:101A1000A0023091A1028D3001F52130310599F4F9
:101A2000E0919E02F0919F02E25AFD4F10820E94C7
:101A300048060E94DB058FEE92E00E94D500181642
:101A40001906FCF24FC02230310589F7E0919E0261
:101A5000F0919F02E25EFD4FE9CF8032F9F421154B
:101A6000310539F4A1E0B0E0B093A102A093A00247
:101A7000E2CF21303105F9F6E0919E02F0919F020C
:101A8000E25AFD4F1082E2E0F0E0F093A102E09311
:101A9000A00210929F0210929E02CDCF2115310517
:101AA00019F480931D02C7CF2130310541F42091F4
:101AB0009E0230919F02F901E25AFD4F0BC0223085
:101AC000310509F0B8CF20919E0230919F02F901B3
:101AD000E25EFD4F80832F5F3F4F30939F02209344
:101AE0009E02A9CF2FB7F894809118029091190205
:101AF000A0911A02B0911B022FBF80900401909018
:101B00000501A0900601B090070189829A82AB82FC
:101B1000BC8288169906AA06BB0608F0ABC1809065
:101B2000EC019090ED01A090EE01B090EF01222722
:101B30003327A901281939094A095B092F87388BEE
:101B4000498B5A8B209308023093090240930A0272
:101B500050930B024090E8015090E9016090EA0137
:101B60007090EB014092F4015092F5016092F60101
:101B70007092F70180911C022090100230901102A7
:101B800081110CC0232839F48091FC019091FD0152
:101B9000892B09F460C10E9404065DC18091F8019F
:101BA0009091F9015201A81AB90AB5010B2C000C49
:101BB000880B990B0E9453109B01AC016091F001BE
:101BC0007091F1018091F2019091F3010E94AE0FAA
:101BD0000E941B106D837E838F8398870091FE0186
:101BE0001091FF01A0919F03B091A0039B01AC0154
:101BF0000E942D112091FC013091FD01A501421B95
:101C0000530B20919D0330919E03429FF001439F0F
:101C1000F00D529FF00D11246F01FF0FEE08FF0829
:101C20009B01AC012C193D094E095F09C801012E29
:101C3000000CAA0BBB0BBC01CD01620F731F841FEC
:101C4000951F2091990330919A03032E000C440BA9
:101C5000550B0E9401114092F8015092F9016092D7
:101C6000FA017092FB01C0900002D0900102E09056
:101C70000202F0900302C20ED31EE41EF51E3FEFD7
:101C8000C316D104E104F104DCF442E0C4164FEFC2
:101C9000D406E406F406CCF02091A3033091A4030B
:101CA0006D817E81269FC001279F900D369F900DEC
:101CB0001124080F191F1093FF010093FE010BC0A0
:101CC000C12CD12C7601CA9406C0CC24C394DD2447
:101CD000DA94ED2CFD2CC0920002D0920102E09229
:101CE0000202F0920302B092FD01A092FC018091E9
:101CF0000C0290910D020F851889081B190BB80171
:101D0000012E000C880B990B0E9453109B01AC0113
:101D10006091040270910502809106029091070281
:101D20000E94AE0F0E941B102B013C0180901202FA
:101D3000909013029E828D82A091A703B091A80378
:101D40009B01AC010E942D11DC01CB01F801E219CD
:101D5000F3092091A5033091A603E29FB001E39F10
:101D6000700DF29F700D11249B01770F440B550BE2
:101D70004C015D01821A930AA40AB50A8B869C86DF
:101D8000AD86BE86AD80BE80C501BB0CAA0BBB0B69
:101D90002B853C854D855E85280F391F4A1F5B1FAB
:101DA000CA01B9012091A1033091A203032E000CB6
:101DB000440B550B0E9401118F849888A988BA881A
:101DC00080920C0290920D02A0920E02B0920F022D
:101DD0008091140290911502A0911602B091170201
:101DE000820F931FA41FB51F8F3F9105A105B10559
:101DF000D4F482302FEF9207A207B207CCF06091A3
:101E0000A3037091A403649DA001659D500D749D72
:101E1000500D11248D809E80480D591D5093130242
:101E20004093120209C08FEF90E0A0E0B0E004C040
:101E300081E09FEFAFEFBFEF809314029093150204
:101E4000A0931602B0931702109311020093100290
:101E5000B6010E94FD0489819A81AB81BC81819683
:101E6000A11DB11D8093040190930501A09306016B
:101E7000B09307012FB7F89480911802909119023E
:101E8000A0911A02B0911B022FBF40910001509106
:101E900001016091020170910301841B950BA60B57
:101EA000B70B813D9740A105B10540F060E070E0BF
:101EB00080E090E00E94FD0410921C020E94E2006B
:101EC0002BCDFC0188279927E89421912032E9F352
:101ED000293010F02E30C8F32B3241F02D3239F476
:101EE000689404C00E94A60F820F911D2191205377
:101EF0002A30C0F31EF4909581959F4F0895FA0102
:101F0000A191B081009719F41097E1F0CD01DC01A7
:101F1000CD010D90002011F4C00113C0FB012191EF
:101F2000222319F02015D9F7F3CFFB0121912015B9
:101F300019F41E92119606C02223C1F70D900020BD
:101F4000A1F7D001FA01A193B08308957AE0979F99
:101F5000902D879F802D910D112408955058BB27F7
:101F6000AA270E94C60F0C94A5100E94971038F063
:101F70000E949E1020F039F49F3F19F426F40C942F
:101F800094100EF4E095E7FB0C948E10E92F0E945C
:101F9000B61058F3BA17620773078407950720F045
:101FA00079F4A6F50C94D8100EF4E0950B2EBA2F08
:101FB000A02D0B01B90190010C01CA01A00111244F
:101FC000FF27591B99F0593F50F4503E68F11A16FB
:101FD000F040A22F232F342F4427585FF3CF46958C
:101FE00037952795A795F0405395C9F77EF41F16AE
:101FF000BA0B620B730B840BBAF09150A1F0FF0F78
:10200000BB1F661F771F881FC2F70EC0BA0F621F63
:10201000731F841F48F4879577956795B795F79553
:102020009E3F08F0B0CF9395880F08F09927EE0FE8
:102030009795879508950E9422106894B1110C9489
:10204000D91008950E94BE1088F09F5798F0B92FBC
:102050009927B751B0F0E1F0660F771F881F991FDD
:102060001AF0BA95C9F714C0B13091F00E94D81097
:10207000B1E008950C94D810672F782F8827B85FA7
:1020800039F0B93FCCF3869577956795B395D9F735
:102090003EF490958095709561957F4F8F4F9F4F3F
:1020A0000895E89409C097FB3EF49095809570954B
:1020B00061957F4F8F4F9F4F9923A9F0F92F96E994
:1020C000BB279395F695879577956795B795F11109
:1020D000F8CFFAF4BB0F11F460FF1BC06F5F7F4FA6
:1020E0008F4F9F4F16C0882311F096E911C07723B8
:1020F00021F09EE8872F762F05C0662371F096E8C1
:10210000862F70E060E02AF09A95660F771F881F8F
:10211000DAF7880F9695879597F9089597F99F674D
:1021200080E870E060E008959FEF80EC089500245F
:102130000A941616170618060906089500240A942C
:1021400012161306140605060895092E0394000CB2
:1021500011F4882352F0BB0F40F4BF2B11F460FF41
:1021600004C06F5F7F4F8F4F9F4F089557FD90586A
:10217000440F551F59F05F3F71F04795880F97FB4B
:10218000991F61F09F3F79F0879508951216130605
:102190001406551FF2CF4695F1DF08C01616170634
:1021A0001806991FF1CF8695710561050894089569
:1021B000E894BB2766277727CB0197F90895A1E21A
:1021C0001A2EAA1BBB1BFD010DC0AA1FBB1FEE1FB1
:1021D000FF1FA217B307E407F50720F0A21BB30BFC
:1021E000E40BF50B661F771F881F991F1A9469F778
:1021F00060957095809590959B01AC01BD01CF01D4
:102200000895052E97FB1EF400940E94181157FDA7
:1022100007D00E94DF1007FC03D04EF40C94181175
:1022200050954095309521953F4F4F4F5F4F089502
:1022300090958095709561957F4F8F4F9F4F089532
:10224000EE0FFF1F0590F491E02D09940E943511C7
:10225000B7FF0895821B930B0895B7FF0C944411A8
:102260000E944411821B930B0895A29FB001B39F5B
:10227000C001A39F700D811D1124911DB29F700D8F
:10228000811D1124911D08950E943511A59F900D67
:10229000B49F900DA49F800D911D1124089581E09D
:0C22A00090E0F8940C945411F894FFCFD7
:1022AC00D0070000210000000001FF00FF0000012A
:1022BC00010000FF00FF0100000000003102C9080E
:1022CC00A4007802D500B300C70000000000B001E4
:1022DC007301DA0147016B015701480120004F4B94
:1022EC00003A00496E76616C696420436F6D6D61D4
:0622FC006E64000D0A00F3
:00000001FF
