:100000000C947A000C94A2000C94A2000C94A20010
:100010000C942F050C9486050C94A2000C94A2005D
:100020000C94A2000C94A2000C94A2000C94A200C8
:100030000C94A2000C94A2000C94A2000C94A200B8
:100040000C94E5040C94A2000C94B3040C948D045D
:100050000C94A2000C94A2000C94A2000C94A20098
:100060000C94A2000C94A20059075407BA07720717
:100070001A08CB08CB08CB08CB08CB08CB08CB0899
:100080004608CB08CB08CC07CB083308CB08CB08F5
:100090005007CB08A807A307000000002400270092
:1000A0002A0000000000250028002B0000000008A6
:1000B000000201000003040700000000000000002F
:1000C00000000000230026002900040404040404A6
:1000D00004040202020202020303030303030102F7
:1000E00004081020408001020408102001020408C6
:1000F0001020C90911241FBECFEFD8E0DEBFCDBF4D
:1001000011E0A0E0B1E0E8ECF7E102C005900D924B
:10011000AA34B107D9F722E0AAE4B1E001C01D92E8
:10012000A335B207E1F710E0CAE7D0E004C0219799
:10013000FE010E94B50BC937D107C9F70E941A0604
:100140000C94E20B0C940000CF92DF92EF92FF929E
:100150000F931F93CF93DF936C017A018B01C0E063
:10016000D0E0CE15DF0589F0D8016D918D01D60163
:10017000ED91FC910190F081E02DC6010995892B4C
:1001800011F47E0102C02196ECCFC701DF91CF911F
:100190001F910F91FF90EF90DF90CF9008950895F9
:1001A00080E090E00895FC01538D448D252F30E0D0
:1001B000842F90E0821B930B541710F0CF96089574
:1001C00001970895FC01918D828D981761F0828DC1
:1001D000DF01A80FB11D5D968C91928D9F5F9F737B
:1001E000928F90E008958FEF9FEF0895FC01918D1D
:1001F000828D981731F0828DE80FF11D858D90E08A
:1002000008958FEF9FEF0895FC01918D228D892F26
:1002100090E0805C9F4F821B91098F73992708950E
:1002200086EB91E00E94040121E0892B09F420E093
:10023000822F0895FC01848DDF01A80FB11DA35A00
:10024000BF4F2C91848D90E001968F739927848FF6
:10025000A689B7892C93A089B1898C9180648C93ED
:10026000938D848D981306C00288F389E02D8081D8
:100270008F7D80830895EF92FF920F931F93CF930A
:10028000DF93EC0181E0888F9B8D8C8D981305C0E6
:10029000E889F989808185FD24C0F62E0B8D10E058
:1002A0000F5F1F4F0F731127E02E8C8DE8120CC0CB
:1002B0000FB607FCFACFE889F989808185FFF5CF71
:1002C000CE010E941A01F1CF8B8DFE01E80FF11DC6
:1002D000E35AFF4FF0820B8FEA89FB8980818062AD
:1002E00007C0EE89FF896083E889F989808180648D
:1002F000808381E090E0DF91CF911F910F91FF907B
:10030000EF900895CF93DF93EC01888D8823C9F097
:10031000EA89FB89808185FD05C0A889B9898C910E
:1003200086FD0FC00FB607FCF5CF808185FFF2CFA9
:10033000A889B9898C9185FFEDCFCE010E941A0161
:10034000E7CFDF91CF91089580E090E0892B29F0ED
:100350000E94100181110C9400000895833081F0F7
:1003600028F4813099F08230A1F008958730A9F007
:100370008830B9F08430D1F4809180008F7D03C043
:10038000809180008F7780938000089584B58F7767
:1003900002C084B58F7D84BD08958091B0008F77B1
:1003A00003C08091B0008F7D8093B00008951F93AB
:1003B000CF93DF93282F30E0F901E455FF4F84916C
:1003C000F901E252FF4FD491F901E653FF4FC49176
:1003D000CC23C9F0162F81110E94AE01EC2FF0E062
:1003E000EE0FFF1FEE55FF4FA591B4918FB7F89414
:1003F000111105C09C91ED2FE095E92302C0EC910D
:10040000ED2BEC938FBFDF91CF911F910895CF9388
:10041000DF9390E0FC01E252FF4F2491FC01E65390
:10042000FF4F8491882361F190E0880F991FFC01B0
:10043000E856FF4FC591D491FC01EE55FF4FA591B1
:10044000B491611109C09FB7F894888120958223E7
:100450008883EC912E230BC0623061F49FB7F8942F
:100460003881822F809583238883EC912E2B2C93C7
:100470009FBF06C08FB7F894E8812E2B28838FBFCB
:10048000DF91CF9108951F93CF93DF93182FEB0146
:1004900061E00E940702209711F460E004C0CF3FA2
:1004A000D10539F461E0812FDF91CF911F910C9438
:1004B000D701E12FF0E0E455FF4FE491E330F9F08C
:1004C00048F4E130B9F0E230A1F584B5806284BD32
:1004D000C8BD34C0E730E9F0E83019F1E43049F53F
:1004E00080918000806280938000D0938B00C093C5
:1004F0008A0024C084B5806884BDC7BD1FC08091B8
:100500008000806880938000D0938900C093880029
:1005100015C08091B00080688093B000C093B30094
:100520000DC08091B00080628093B000C093B40091
:1005300005C0C038D1050CF0B5CFAFCFDF91CF915A
:100540001F9108952F923F924F925F926F927F92E8
:100550008F929F92AF92BF92CF92DF92EF92FF92D3
:100560000F931F93CF93DF93EC018C809D80AE801F
:10057000BF80888599858401081B190BB801012E5D
:10058000000C880B990B0E94E80A9B01AC01688162
:1005900079818A819B810E94430A0E94B00A6B0183
:1005A0007C016E847F84A0910401B09105019B01C0
:1005B000AC010E94BB0B2C853D85A801421B530B4F
:1005C0002091020130910301429FF001439FF00D01
:1005D000529FF00D11249F01FF0F440B550B1B017F
:1005E0002C01221A330A440A550AC301072C000CB5
:1005F000AA0BBB0B280E391E4A1E5B1EC201B1019D
:100600002091000130910101032E000C440B550B89
:100610000E94960B88869986AA86BB8688899989C6
:10062000AA89BB8949015A01880E991EAA1EBB1EC0
:100630008FEF88169104A104B104BCF482E08816FF
:100640008FEF9806A806B806ACF060915101709142
:1006500052016C9DC0016D9D900D7C9D900D1124EB
:10066000680E791E7F866E860BC0812C912C5401FA
:100670008A9406C08824839499249A94A92CB92C2E
:10068000888A998AAA8ABB8A1D870C87DF91CF91B5
:100690001F910F91FF90EF90DF90CF90BF90AF90A0
:1006A0009F908F907F906F905F904F903F902F9092
:1006B0000895E7E7F1E0108211821282138280919F
:1006C0005F0190916001A0916101B091620184830A
:1006D0009583A683B78380879187A287B387108A83
:1006E000118A128A138A1586148617861686E3E6FF
:1006F000F1E0108211821282138280915B0190914D
:100700005C01A0915D01B0915E0184839583A68315
:10071000B78380879187A287B387108A118A128A4C
:10072000138A15861486178616860895009769F031
:10073000FC0101900020E9F73197AF01481B590BEC
:10074000BC0186EB91E00C94A40080E090E0089559
:10075000CF93DF930E949603EC0180E391E00E9427
:1007600096038C0F9D1FDF91CF9108958F929F92DA
:10077000AF92BF92CF92DF92EF92FF920F931F93AF
:10078000CF93DF93CDB7DEB7A1970FB6F894DEBF56
:100790000FBECDBF6B017C0197FF31C0E091B60168
:1007A000F091B7010190F081E02D6DE286EB91E0D0
:1007B00009958C0122273327A9012C193D094E09DF
:1007C0005F0919A2CE0181967C019AE0892E912CB5
:1007D000A12CB12CCA01B901A50194010E94740B8E
:1007E000605DF70162937F012115310541055105D7
:1007F00089F7CF010E949603800F911F1DC09B01B6
:10080000AC0119A28E010F5D1F4F8AE0C82ED12CBA
:10081000E12CF12CCA01B901A70196010E94740BC9
:10082000605DF80162938F01211531054105510585
:1008300089F7CF010E949603A1960FB6F894DEBF08
:100840000FBECDBFDF91CF911F910F91FF90EF9021
:10085000DF90CF90BF90AF909F908F900895CF93EF
:10086000DF930E94B603EC0180E391E00E949603BF
:100870008C0F9D1FDF91CF9108950F931F93CF93FE
:10088000DF93EB0197FF05C091958195910921E0D8
:1008900001C020E08C018F3F910519F014F00FEF9B
:1008A00010E0222331F060E087E00E94D70161E090
:1008B00005C061E087E00E94D70160E088E00E9407
:1008C000D701B80185E00E944302D7FF05C0D1954A
:1008D000C195D10981E001C080E0CF3FD10519F079
:1008E00014F0CFEFD0E0882331F060E08AE00E947E
:1008F000D70161E005C061E08AE00E94D70160E0B5
:1009000089E00E94D701BE0186E0DF91CF911F915F
:100910000F910C9443020E94DD0B1F920F920FB6B1
:100920000F9211242F933F934F935F936F937F9375
:100930008F939F93AF93BF93EF93FF9386EB91E0D9
:100940000E941A01FF91EF91BF91AF919F918F91FA
:100950007F916F915F914F913F912F910F900FBEBB
:100960000F901F9018951F920F920FB60F9211249F
:100970002F938F939F93EF93FF93E091C601F09194
:10098000C7018081E091CC01F091CD0182FD12C0C0
:1009900090818091CF018F5F8F732091D00182175A
:1009A00051F0E091CF01F0E0EA54FE4F958F809333
:1009B000CF0101C08081FF91EF919F918F912F9185
:1009C0000F900FBE0F901F9018951F920F920FB6A9
:1009D0000F9211242F933F938F939F93AF93BF93C5
:1009E00080918B0190918C01A0918D01B0918E012D
:1009F0003091500123E0230F2D3720F40196A11DE3
:100A0000B11D05C026E8230F0296A11DB11D20933C
:100A1000500180938B0190938C01A0938D01B09332
:100A20008E0180914C0190914D01A0914E01B091A9
:100A30004F010196A11DB11D80934C0190934D0172
:100A4000A0934E01B0934F01BF91AF919F918F91B1
:100A50003F912F910F900FBE0F901F9018951F92EE
:100A60000F920FB60F9211240F931F932F933F9362
:100A70004F935F936F937F938F939F93AF93BF93A6
:100A8000EF93FF9320914B01220F220F20934B01F4
:100A900086B18C7090E09595879595958795822B7A
:100AA00080934B0140915B0150915C0160915D012D
:100AB00070915E018F70E82FF0E0E25FFE4F808161
:100AC000082E000C990BAA0BBB0B8A019B01081B7B
:100AD000190B2A0B3B0B00935B0110935C012093D5
:100AE0005D0130935E01FF91EF91BF91AF919F91B6
:100AF0008F917F916F915F914F913F912F911F91B6
:100B00000F910F900FBE0F901F9018951F920F928C
:100B10000FB60F9211242F934F935F936F937F9390
:100B20008F939F93AF93BF93EF93FF9320914A01CD
:100B3000220F220F20934A0189B18C7090E0959585
:100B4000879595958795822B80934A0140915F0107
:100B50005091600160916101709162018F70E82F86
:100B6000F0E0E25FFE4F8081082E000C990BAA0B8B
:100B7000BB0B840F951FA61FB71F80935F01909337
:100B80006001A0936101B0936201FF91EF91BF9169
:100B9000AF919F918F917F916F915F914F912F9125
:100BA0000F900FBE0F901F901895CF92DF92EF928B
:100BB000FF920F931F93E82FF92F05C001501109E1
:100BC0002109310961F1908196239417B9F305C089
:100BD000015011092109310911F1908196239413D3
:100BE000F7CFC12CD12CE12CF12C0AC08FEFC81A01
:100BF000D80AE80AF80A0C151D052E053F0579F0FC
:100C000080818623841791F36C2D7D2D8E2D9F2D51
:100C10001F910F91FF90EF90DF90CF90089560E0CB
:100C200070E080E090E01F910F91FF90EF90DF90D7
:100C3000CF900895CF93DF93CDB7DEB72A970FB645
:100C4000F894DEBF0FBECDBF789484B5826084BDBA
:100C500084B5816084BD85B5826085BD85B58160C0
:100C600085BD80916E00816080936E00109281003E
:100C700080918100826080938100809181008160F9
:100C800080938100809180008160809380008091BA
:100C9000B10084608093B1008091B0008160809346
:100CA000B00080917A00846080937A0080917A000D
:100CB000826080937A0080917A00816080937A00CC
:100CC00080917A00806880937A001092C100E09150
:100CD000C601F091C70182E08083E091C601F091E6
:100CE000C7011082E091C201F091C3011082E0912E
:100CF000C401F091C50180E180831092CE01E091A2
:100D0000CA01F091CB0186E08083E091C801F091A7
:100D1000C901808180618083E091C801F091C9019F
:100D2000808188608083E091C801F091C901808151
:100D300080688083E091C801F091C90180818F7D36
:100D40008083529853983A983B985A9A5B9A429A61
:100D5000439A80916D008C6080936D0080916C004F
:100D60008C6080936C00809168008660809368003E
:100D700061E087E00E94070261E088E00E940702CC
:100D800061E085E00E94070261E08AE00E940702BC
:100D900061E089E00E94070261E086E00E940702AC
:100DA00061E087E00E94D70161E088E00E94D701FE
:100DB00061E08AE00E94D70161E089E00E94D701EA
:100DC0000E9459034AE3242E312C412C512CAA2491
:100DD000A394B12C20E1922E882483943FE0632ECB
:100DE000712C86EB91E00E940401181619060CF094
:100DF0003EC286EB91E00E94E2008093B501209113
:100E0000B3013091B4018D3009F0EDC121303105CD
:100E100039F4E091B101F091B201EF55FE4F09C0F4
:100E20002230310539F4E091B101F091B201EF5671
:100E3000FE4F108281EA91E09A8789870E94F60925
:100E40008C01092E000CAA0BBB0B809357019093C9
:100E50005801A0935901B0935A0181E991E00E9491
:100E6000F609AC01092E000C660B770B4093530179
:100E7000509354016093550170935601E091900195
:100E8000CE2EEE0FDD08EE08FF08F601E156F1095F
:100E9000E831F10508F07FC1EC5CFF4F0C94B50B15
:100EA0008E010F5F1F4F4AC160E071EE80E090E05D
:100EB000D7C0802F0E3010F082EF800F87708064D3
:100EC00080937C0080917A00806480937A00809186
:100ED0007A0086FDFCCF609178008091790070E007
:100EE000782B26C01127F801E455FF4F8491F801B3
:100EF000E252FF4FF490F801E653FF4F04910023B4
:100F0000A9F081110E94AE01E02FF0E0EE0FFF1F6B
:100F1000E054FF4FA591B491EC919E2F9F2121E0C9
:100F200080E009F420E0622F782F02C060E070E0DA
:100F3000072E000C880B990B0E94B60380E391E00A
:100F40000E9496032CC1BC01802F0E94430220C145
:100F5000411551056105710511F460E007C041308C
:100F600051056105710509F013C161E0802F0E94F0
:100F7000D7010EC1411551056105710511F460E0FD
:100F800007C0413051056105710509F001C161E0FB
:100F9000802F0E940702FCC061E0802F0E940702A0
:100FA00060E0802F0E94D70183E090E00197F1F785
:100FB00061E0802F0E94D701C3010197F1F760E043
:100FC000802F0E94D70160E0802F0E940702112726
:100FD000F801E252FF4F6491F801E653FF4FE491AC
:100FE000F0E0EE0FFF1FE054FF4F8591949100E475
:100FF00012E42FE030E0462F0E94D50561157105FF
:101000008105910549F0DC01CB010196A11DB11DBF
:10101000BC01CD019F7003C060E070E0CB01A20174
:1010200091010E94960BCA01B9010E94E80A0E9430
:10103000B00A16C060915F017091600180916101FA
:10104000909162010E94B60386E391E00E949603AC
:1010500060915B0170915C0180915D0190915E01F6
:101060000E942F049CC010925F01109260011092A8
:1010700061011092620110925B0110925C0110926A
:101080005D0110925E010E94590382C02FB7F8944F
:1010900080918B0190918C01A0918D01B0918E0176
:1010A0002FBF8093060190930701A0930801B0938E
:1010B0000901C0905701D0905801E0905901F0907B
:1010C0005A01C114D104E104F104B9F4809153012F
:1010D00090915401A0915501B0915601892B8A2B12
:1010E0008B2B59F460E070E080E090E00E943D04BA
:1010F0000E94590310928F0102C080928F01C70194
:10110000B6010E94E80A609377017093780180939A
:10111000790190937A01609153017091540180910B
:101120005501909156010E94E80A60936301709303
:10113000640180936501909366012AC0AE01475F08
:101140005F4F68E371E089859A850E94140A0097D1
:1011500039F00E94F609D8018D939D938D01EECF51
:1011600089819A8190930501809304018B819C81F0
:1011700090930301809302018D819E81909352018F
:10118000809351018F819885909301018093000194
:1011900083E391E002C08AE391E00E94A8031092E9
:1011A0009001E1EAF1E0292D11922A95E9F7E1E9B0
:1011B000F1E0DF01292D1D922A95E9F710925701E0
:1011C000109258011092590110925A011092530135
:1011D0001092540110925501109256011092B401D0
:1011E0001092B3011BC08032F1F42115310529F4AE
:1011F000B092B401A092B301F4CD2130310509F0D1
:10120000F0CDE091B101F091B201EF55FE4F1082A7
:1012100082E090E09093B4018093B3011092B20108
:101220001092B101DECD2115310519F480939001A2
:10123000D8CD2130310541F42091B1013091B20176
:10124000F901EF55FE4F0BC02230310509F0C9CD31
:101250002091B1013091B201F901EF56FE4F808328
:101260002F5F3F4F3093B2012093B101BACD2FB71A
:10127000F89480918B0190918C01A0918D01B09197
:101280008E012FBF60900A0170900B0180900C01BD
:1012900090900D01681679068A069B0608F052C0E8
:1012A00080915F0190916001A0916101B091620114
:1012B00080937B0190937C01A0937D01B0937E018C
:1012C00080915B0190915C01A0915D01B0915E0104
:1012D0008093670190936801A0936901B0936A01BC
:1012E00080918F0181110FC08091830190918401C1
:1012F000892B31F480916F0190917001892BA9F0B5
:101300000E94590312C083E691E00E94A20287E77F
:1013100091E00E94A202609173017091740180912A
:101320008701909188010E943D04D401C3018196F8
:10133000A11DB11D80930A0190930B01A0930C0194
:10134000B0930D012FB7F89480918B0190918C018F
:10135000A0918D01B0918E012FBF40910601509157
:1013600007016091080170910901841B950BA60B80
:10137000B70B813D9740A105B10540F060E070E0FA
:1013800080E090E00E943D0410928F010E94A40131
:1013900021CDE6EBF1E01382128288EE93E0A0E02B
:1013A000B0E084839583A683B78382E291E0918342
:1013B000808385EC90E09587848784EC90E0978724
:1013C000868780EC90E0918B808B81EC90E0938B12
:1013D000828B82EC90E0958B848B86EC90E0978BEF
:1013E000868B118E128E138E148E0895FC01882721
:1013F0009927E89421912032E9F3293010F02E301A
:10140000C8F32B3241F02D3239F4689404C00E94A5
:101410003B0A820F911D219120532A30C0F31EF404
:10142000909581959F4F0895FA01A191B081009701
:1014300019F41097E1F0CD01DC01CD010D900020F1
:1014400011F4C00113C0FB012191222319F02015D2
:10145000D9F7F3CFFB012191201519F41E921196B3
:1014600006C02223C1F70D900020A1F7D001FA0198
:10147000A193B08308957AE0979F902D879F802D48
:10148000910D112408955058BB27AA270E945B0A8A
:101490000C943A0B0E942C0B38F00E94330B20F076
:1014A00039F49F3F19F426F40C94290B0EF4E095BF
:1014B000E7FB0C94230BE92F0E944B0B58F3BA1750
:1014C000620773078407950720F079F4A6F50C945A
:1014D0006D0B0EF4E0950B2EBA2FA02D0B01B90168
:1014E00090010C01CA01A0011124FF27591B99F09A
:1014F000593F50F4503E68F11A16F040A22F232FA6
:10150000342F4427585FF3CF469537952795A795F5
:10151000F0405395C9F77EF41F16BA0B620B730B9C
:10152000840BBAF09150A1F0FF0FBB1F661F771F0D
:10153000881FC2F70EC0BA0F621F731F841F48F4C2
:10154000879577956795B795F7959E3F08F0B0CF4B
:101550009395880F08F09927EE0F97958795089532
:101560000E94B70A6894B1110C946E0B08950E9402
:10157000530B88F09F5798F0B92F9927B751B0F0C7
:10158000E1F0660F771F881F991F1AF0BA95C9F707
:1015900014C0B13091F00E946D0BB1E008950C942D
:1015A0006D0B672F782F8827B85F39F0B93FCCF3E0
:1015B000869577956795B395D9F73EF49095809584
:1015C000709561957F4F8F4F9F4F0895E89409C0A4
:1015D00097FB3EF490958095709561957F4F8F4F66
:1015E0009F4F9923A9F0F92F96E9BB279395F6957C
:1015F000879577956795B795F111F8CFFAF4BB0FFA
:1016000011F460FF1BC06F5F7F4F8F4F9F4F16C05D
:10161000882311F096E911C0772321F09EE8872FE7
:10162000762F05C0662371F096E8862F70E060E0A3
:101630002AF09A95660F771F881FDAF7880F96951C
:10164000879597F9089597F99F6780E870E060E0C3
:1016500008959FEF80EC089500240A94161617064B
:1016600018060906089500240A9412161306140693
:1016700005060895092E0394000C11F4882352F0F6
:10168000BB0F40F4BF2B11F460FF04C06F5F7F4FAE
:101690008F4F9F4F089557FD9058440F551F59F095
:1016A0005F3F71F04795880F97FB991F61F09F3F4F
:1016B00079F087950895121613061406551FF2CF78
:1016C0004695F1DF08C0161617061806991FF1CFC8
:1016D00086957105610508940895E894BB276627EF
:1016E0007727CB0197F90895A1E21A2EAA1BBB1BFD
:1016F000FD010DC0AA1FBB1FEE1FFF1FA217B307DE
:10170000E407F50720F0A21BB30BE40BF50B661FF3
:10171000771F881F991F1A9469F7609570958095B7
:1017200090959B01AC01BD01CF010895052E97FB5B
:101730001EF400940E94AD0B57FD07D00E94740B5D
:1017400007FC03D04EF40C94AD0B509540953095AA
:1017500021953F4F4F4F5F4F08959095809570951D
:1017600061957F4F8F4F9F4F0895EE0FFF1F05909C
:10177000F491E02D0994B7FF0C94C30B0E94C30BA6
:10178000821B930B08950E94CE0BA59F900DB49FD2
:10179000900DA49F800D911D11240895A29FB0016A
:1017A000B39FC001A39F700D811D1124911DB29F95
:1017B000700D811D1124911D089581E090E0F89431
:0817C0000C94E20BF894FFCF3A
:1017C80032000C001400D0070000210000000001C6
:1017D800FF00FF000001010000FF00FF0100000002
:1017E80000003B01A400D30082010401E200F600DE
:1017F8000D0A004F4B0020003A00496E76616C6973
:0A1808006420436F6D6D616E640093
:00000001FF
